:02000002B0004C
:1040000000400B000C530B00000006000C000502E2
:084010000401A30F00000000F1
:0440180008500B0041
:10401C0009480A49884208B505D0094A824202D0AB
:10402C00121A00F039FF0748074A0021121A00F053
:10403C0041FF014808BD00BF40E6032078520B0049
:10404C00ACE60320ACE60320EDE7032070B5074E89
:10405C00074C00F08BFBA41BA4080025AC4200D13C
:10406C0070BD56F8043B98470135F7E724520B0016
:10407C0048520B0000F013B808B500F014F8BDE876
:10408C00084000F02BBB00F01FBA00F025BA0078F6
:10409C00B0FA80F04009704701230370704701218A
:1040AC00072000F04BBE08B50121072000F057FE99
:1040BC004FF4C87000F0E6FA0021072000F04FFE24
:1040CC004FF4C87000F0DEFA0121072000F047FE23
:1040DC004FF4C87000F0D6FA0021072000F03FFE24
:1040EC004FF4C87000F0CEFA0121072000F037FE23
:1040FC004FF4C87000F0C6FA0021072000F02FFE24
:10410C004FF4C87000F0BEFA0121072000F027FE22
:10411C004FF4C87000F0B6FA0021072000F01FFE23
:10412C00C82000F0AFFA0121072000F018FEC820CB
:10413C0000F0A8FA0021072000F011FEC82000F0C2
:10414C00A1FA0121072000F00AFEC82000F09AFA1B
:10415C000021072000F003FEC82000F093FA012193
:10416C00072000F0FCFDC82000F08CFABDE80840E8
:10417C000021072000F0F3BD08B50120002100F05C
:10418C001FF9064B0022C3E90022A2F580329A6087
:10419C00BDE80840022000F003B900BFACE60320E4
:1041AC0008B5024B1B689B68019308BD68020300AD
:1041BC0008B5024B1B68DB68019308BD680203005D
:1041CC0008B5024B1B689B68019308BD2C020300C9
:1041DC0008B5024B1B68DB68019308BD2C02030079
:1041EC0008B5024B1B681B69019308BD2C02030028
:1041FC0008B5024B1B685B68019308BD18020300ED
:10420C0008B5024B1B685B69019308BD18020300DB
:10421C0008B5024B1B685B6C019308BD4802030098
:10422C0008B5024B1B685B69019308BD640203006F
:10423C0008B5024B1B68DB68019308BD3C02030008
:10424C0008B5024B1B681B69019308BD3C020300B7
:10425C0008B5024B1B685B69019308BD3C02030067
:10426C0008B5024B1B689B69019308BD3C02030017
:10427C0008B5024B1B68DB69019308BD3C020300C7
:10428C0008B5024B1B681B6A019308BD3C02030076
:10429C0008B5024B1B689B6A019308BD3C020300E6
:1042AC0008B5024B1B681B6C019308BD3C02030054
:1042BC0008B5024B1B681B6A019308BD280203005A
:1042CC0008B5024B1B685B6A019308BD280203000A
:1042DC0008B5024B1B689B6A019308BD28020300BA
:1042EC0008B5024B1B68DB6A019308BD280203006A
:1042FC0008B5024B1B681B6B019308BD2802030019
:10430C0008B5024B1B685B6B019308BD28020300C8
:10431C0008B5024B1B681B6C019308BD28020300F7
:10432C0008B5024B1B68DB69019308BD3002030022
:10433C0008B5024B1B681B6A019308BD30020300D1
:10434C0008B5024B1B681B68019308BD4C020300A7
:10435C0008B5024B1B681B69019308BD4C02030096
:10436C0008B5024B1B685B69019308BD4C02030046
:10437C0008B5024B1B689B69019308BD4C020300F6
:10438C0008B5024B1B68DB69019308BD4C020300A6
:10439C0008B5024B1B681B6A019308BD4C02030055
:1043AC0008B5024B1B685B68019308BD2002030033
:1043BC0008B5024B1B685B69019308BD2002030022
:1043CC0008B5024B1B68DB6A019308BD2002030091
:1043DC0008B5034B1B68D3F88830019308BD000067
:1043EC002002030008B5034B1B68D3F894300193EB
:1043FC0008BD00002002030008B5024B1B685B6877
:10440C00019308BD4002030008B5024B1B689B6872
:10441C00019308BD4002030008B5024B1B68DB6822
:10442C00019308BD4002030008B5024B1B681B69D1
:10443C00019308BD4002030008B5024B1B685B6981
:10444C00019308BD4002030008B5024B1B689B6931
:10445C00019308BD4002030008B5024B1B68DB69E1
:10446C00019308BD4002030008B5024B1B681B6A90
:10447C00019308BD4002030008B5024B1B681B6B7F
:10448C00019308BD4002030008B5024B1B685B6B2F
:10449C00019308BD4002030008B5024B1B681B6C5E
:1044AC00019308BD4002030008B5024B1B685B6C0E
:1044BC00019308BD4002030008B5024B1B68DB6B7F
:1044CC00019308BD4402030008B5024B1B681B682E
:1044DC00019308BD1C02030008B5024B1B685B6806
:1044EC00019308BD1C02030008B5024B1B681B6C32
:1044FC00019308BD1C02030008B5024B1B685B6CE2
:10450C00019308BD1C020300002240681146FFF70E
:10451C00ABBF002240681146FFF7B6BF40680022CF
:10452C00FFF7AABF4068002281F00101FFF794BF9A
:10453C00002340681A461946FFF786BF00234068DF
:10454C001A461946FFF778BF002240681146FFF75C
:10455C006BBF002240681146FFF756BF406800222F
:10456C000221FFF759BF002340681A46FFF744BFEA
:10457C00024B03225A60024A1A607047B8E60320C5
:10458C0024500B0010B5044608462170FFF7C8FEF6
:10459C0000236360204610BD054B02221A60054BB8
:1045AC00054A9A600020C3E90000FFF7F9BE00BF7E
:1045BC00CCE60320C0E603200000FFFF02480023E6
:1045CC000360FFF725BE00BFD0E60320F8B5064612
:1045DC000D468F180024BD420CD0336815F8011B12
:1045EC009B6830469847031E01DB1C44F3E7002C04
:1045FC0008BF1C462046F8BD13B50446084659B101
:10460C00019100F08DFC23680199DB68024620467D
:10461C0002B0BDE81040184702B010BD03689B689B
:10462C00184730B58BB00023012A8DF8243098BF81
:10463C000A2209AC0D46B1FBF2F101FB125303F057
:10464C00FF03092B94BF30333733DBB2AA4204F893
:10465C00013DEFD92146FFF7CFFF0BB030BD000075
:10466C00014B024A1A607047D4E6032058500B00E5
:10467C00024B1A68024B1A60704700BF40E60320D9
:10468C00D8E603200021FFF793BE0000014B002267
:10469C009A607047DCE60320014B1860704700BF3E
:1046AC0044E6032008B50B4B43B100F063F90368F3
:1046BC001B699847002801DDAFF30080064B43B11E
:1046CC0000F082FB03681B699847002801DDAFF3FB
:1046DC00008008BD000000000000000008B5FFF7D6
:1046EC00E1FFFFF78DFD014B186008BD40E703208B
:1046FC000548064A064908B5121A00F0CDFB054BD1
:10470C00054A1A6008BD00BF00F4032004F403201E
:10471C0074520B0000F403201E1C279A07B50023CB
:10472C0000931A466FF07701FFF75CFE03B05DF85B
:10473C0004FB000007B543880A2B08D0502B0BD183
:10474C00094B1B684BB103B05DF804EB1847FFF73E
:10475C00E5FF03B05DF804FB002300931A466FF0ED
:10476C007701FFF73FFEF4E7F0E6032010B512489F
:10477C000021FFF7C1FE114B1A68114B9A42114BE5
:10478C000CBF012200221A7001D0FFF7B1FFFFF716
:10479C002FFD044600F096FB0B4B13B12046AFF3F4
:1047AC00008000210848FFF787FEBDE8104007484D
:1047BC000021FFF70DBE00BFA5460B0000F403203F
:1047CC001E1C279AECE603200000000041470B005A
:1047DC00704710B518210446FFF757FC204610BD52
:1047EC00F0B5037D062B8DB00E4600F104074FF09B
:1047FC00000412D000F1080515F8011D0A223046FC
:10480C00FFF70FFFAF42044419D0002CF4D02E2137
:10481C003046FFF703FF0444EEE72F236A46394680
:10482C000A208DF80040FFF7FBFC684600F078FB8F
:10483C0033680246DB686946304698470446204692
:10484C000DB0F0BD10B5054B0446112240F8043BE9
:10485C00002100F02FFB204610BD00BF80500B0044
:10486C000346074A10B543F8042B01F1100251F826
:10487C00044B43F8044B9142F9D10A781A7010BDDD
:10488C0080500B0010B59DF8084044EA032343EA1E
:10489C00024242EA016104234160037510BD00002D
:1048AC0007B5064B0360CB7800938B784A78097870
:1048BC00FFF7E8FF03B05DF804FB00BF80500B006E
:1048CC00417470477047704708B50021007CFFF7B2
:1048DC004FFD40EAE07008BD08B50121007CFFF7F0
:1048EC0047FD40EAE07008BD08B5007CFFF738FDD5
:1048FC0020EAE07008BD08B5007CFFF729FD20EA2E
:10490C00E07008BD13B50446007C0191FFF728FD4B
:10491C000028019901DC607C20B1207CFFF730FD80
:10492C0020EAE07002B010BD007CFFF731BD10B57D
:10493C0014210446FFF7A9FB204610BD10B54FF417
:10494C007A73044608460021C4E90113044B236022
:10495C000123207463741146FFF7F2FC204610BD4E
:10496C0094500B0010B514220446002100F0A2FA5A
:10497C00204610BD10B50F4C88B003A8FFF7F2FF0E
:10498C002178BFF35B8F11F001010FD1204601910B
:10499C00FFF77DFB019948B103AA0748FFF7CEFF4B
:1049AC002046FFF779FB054800F070FA024808B082
:1049BC0010BD00BFF4E60320F8E60320D1480B003D
:1049CC0070474174704708B5007CFFF761FC20EA22
:1049DC00E07008BD08B5007CFFF732FC20EAE070FF
:1049EC0008BD08B5007CFFF73BFC40EAE07008BD51
:1049FC0008B5007CFFF72CFC40EAE07008BD007C99
:104A0C00FFF736BC37B5457C04462DB1207C03B08E
:104A1C00BDE83040FFF70CBC007C0191FFF738FC7F
:104A2C0000280199F2DC284603B030BD10B51421E2
:104A3C000446FFF72AFB204610BD000010B54FF4CA
:104A4C007A730446084611460022C4E90123044B3C
:104A5C002360012320746374FFF722FC204610BDF1
:104A6C00C4500B007047F8B5064615460C468F1817
:104A7C00BC4206D0336814F8011B9B68304698473B
:104A8C00F6E72846F8BD007C0022FFF711BC007C3D
:104A9C000021FFF715BC007C0021FFF719BC007C3E
:104AAC000021FFF71DBC007C0021FFF721BC10B5D5
:104ABC0014210446FFF7E9FA204610BD10B54FF457
:104ACC007A73044608460021C4E90113034B2360A2
:104ADC0020741146FFF71CFC204610BDF4500B004F
:104AEC00002240681146FFF79FBC00224068114627
:104AFC00FFF7BABC002240681146FFF7C5BC4068FE
:104B0C000022FFF7B9BC4068002281F00101FFF7D9
:104B1C00A3BC002340681A461946FFF795BC002336
:104B2C0040681A461946FFF787BC002240681146B8
:104B3C00FFF76ABC406800220221FFF76DBC00231E
:104B4C0040681A46FFF758BC024B04225A60024ACE
:104B5C001A6070470CE703201C510B0000234068BF
:104B6C001A46FFF749BC406800220221FFF754BCEB
:104B7C00002240681146FFF747BC002240681146EE
:104B8C00FFF752BC002340681A461946FFF754BC85
:104B9C00002340681A461946FFF756BC40680021AE
:104BAC00FFF77ABC40680021FFF77EBC406800220A
:104BBC0081F00101FFF750BC40680022FFF75CBC9C
:104BCC00002240681146FFF75FBC00224068114686
:104BDC00FFF74ABC2DE9F04395B014460D46074645
:104BEC00FFF730FE00211C220DA8009100F062F9A5
:104BFC0040230C9320466B460CAA0021FFF7D8FAF1
:104C0C00044600284BD1024601216868FFF70CFCD2
:104C1C000221804622466868FFF706FC009E81460A
:104C2C002146002E3BD0002939D17368022B03D0CA
:104C3C000A2B11D0F669F4E7B8F1000FFAD07169BC
:104C4C0006A8043107ADFFF72BFE0FCD3C1D0FC49A
:104C5C002B6823704146EDE7B9F1000FEAD0746977
:104C6C00102201A800F026F906238DF8143001ADAE
:104C7C0004F108031834186859682A4603C208332B
:104C8C00A3421546F7D101A906A807ADFFF7E8FD29
:104C9C000FCD3C1D0FC42B6823704946CAE7009802
:104CAC00FFF77EFA384615B0BDE8F083024B034A95
:104CBC001A6000225A60704714E7032058510B0009
:104CCC00232813B502D9002002B010BDA0F10B03AC
:104CDC00022B1AD8174C2178BFF35B8F11F001010E
:104CEC000BD120460191FFF7D2F9019928B1124856
:104CFC00FFF748FC2046FFF7CFF90F4B1878FFF76A
:104D0C0017FB0028DFD10120DEE7012809D800F0CD
:104D1C0097F80021007CFFF7F3FA80F00100C0B295
:104D2C00D2E709380128EED800F04EF8007CFFF7E6
:104D3C00A7FAF2E71CE7032020E70320232838B565
:104D4C0004460D460AD8FF2908D0FFF7B9FF28B151
:104D5C0029462046BDE83840FFF732BA38BD38B591
:104D6C0004460D46FFF734FAFF2810D0062804D865
:104D7C004D2323FA00F0C30709D42046FFF7A0FF08
:104D8C0028B129462046BDE83840FFF729BA38BD7E
:104D9C007047000038B5044614252A46002100F05F
:104DAC0089F825804025074925812846258200F071
:104DBC006BF804496060284600F066F8E060204615
:104DCC0038BD00BF8C510B0030B50E4D2978BFF3A8
:104DDC005B8F11F0010487B011D12846FFF757F90A
:104DEC0068B101A8FFF7D6FF01AA21460648FFF7D4
:104DFC0025FE2846FFF750F9044800F047F8024812
:104E0C0007B030BD28E703202CE703209D4D0B0095
:104E1C007047000038B520251423044603608560D4
:104E2C0005610649284600F02FF8044960602846C1
:104E3C0000F02AF8E060204638BD00BF8C510B0012
:104E4C0030B50E4D2978BFF35B8F11F0010487B09C
:104E5C0011D12846FFF71BF968B101A8FFF7DAFF5B
:104E6C0001AA21460648FFF729FE2846FFF714F948
:104E7C00044800F00BF8024807B030BD44E70320AB
:104E8C0048E703201D4E0B00FFF7FDB80023014639
:104E9C001A46184600F04CB80A44914200F1FF3310
:104EAC0000D1704710B511F8014B03F8014F914236
:104EBC00F9D110BD02440346934200D1704703F868
:104ECC00011BF9E738B5104B1D68AB6B0446B3B941
:104EDC001820FFF7F9FA0246A86320B90B4B0C48CF
:104EEC004221FFF701FB0B490B4BC0E900130B4BA5
:104EFC0083600B23838100210120C2E90401AB6B89
:104F0C0000221C615A6138BD44E603208D510B0010
:104F1C00A4510B000E33CDAB34126DE6ECDE050064
:104F2C00034613F8012B002AFBD1181A01387047DD
:104F3C002DE9F843DFF8B8800646D8F800001F4684
:104F4C000D46914600F056F8254B1C6834B9254C9B
:104F5C001C60254B13B11B68C4F8883063681F2B89
:104F6C0007DDD8F8000000F047F84FF0FF30BDE83F
:104F7C00F8834EB3D4F8880088B91C4B23B9D8F801
:104F8C00000000F038F8F0E74FF48470FFF79CFA5B
:104F9C000028F4D00023C0E94033C4F888006368CB
:104FAC0040F8239001229A4000EB8301D0F80031A5
:104FBC001343C0F80031022EC1F8807002BFD0F844
:104FCC0004311343C0F804316368D8F800005A1C4C
:104FDC000233626044F8235000F00EF80020C6E75C
:104FEC00E8E703205CE7032000000000D5440B0039
:104FFC00A8E6032070477047704700001D400B0067
:10500C0059400B0081400B0085400B000000000054
:10501C00000000000000000073450B0069450B0008
:10502C005F450B0055450B0049450B003D450B00FA
:10503C00A94B0B00B14B0B0031450B0029450B0064
:10504C001F450B0015450B00E14B0B006170700008
:10505C0025592D256D2D25645425483A254D3A2585
:10506C0053257A0061736374696D6500000000005C
:10507C0000000000ED470B00DD470B00DF470B0085
:10508C000000000000000000D3480B003B490B005F
:10509C0011490B00D9450B0003490B00D5480B00F7
:1050AC00E5480B0035490B00F5480B00CD480B00CB
:1050BC000000000000000000CD490B00394A0B0035
:1050CC00114A0B00D9450B00E1490B00FD490B00BF
:1050DC00EF490B000B4A0B00CF490B00D3490B00D7
:1050EC000000000000000000714A0B00BB4A0B00DE
:1050FC00934A0B00734A0B009B4A0B00A34A0B000C
:10510C00AB4A0B00B34A0B0000000000000000008B
:10511C004B4B0B00414B0B00374B0B00ED4A0B007C
:10512C002B4B0B001F4B0B00A94B0B00B14B0B0077
:10513C00134B0B000B4B0B00014B0B00F74A0B00F6
:10514C00E14B0B000000000000000000694B0B005D
:10515C00734B0B007D4B0B00874B0B00914B0B00E3
:10516C009D4B0B00A94B0B00B14B0B00B94B0B002B
:10517C00C54B0B00CD4B0B00D74B0B00E14B0B0081
:10518C00005245454E54206D616C6C6F63207375F5
:10519C0063636565646564002F6D6E742F776F7241
:1051AC006B73706163652F776F726B73706163657E
:1051BC002F4743432D31302D706970656C696E65D6
:1051CC002F6A656E6B696E732D4743432D31302DFD
:1051DC00706970656C696E652D34385F32303230B1
:1051EC00313132345F313630363138303634312F5C
:1051FC007372632F6E65776C69622F6E65776C695D
:10520C00622F6C6962632F7374646C69622F7261B4
:10521C006E642E630000000085410B007D450B0081
:10522C00A5450B00C9450B006D460B007D460B00D8
:10523C0099460B00554B0B00B94C0B0000000000BD
:04524C00000000005E
:10525000040000001400000003000000474E550049
:10526000A845C6C46D74B087F9DDFA0E57547D8326
:045270006A4A782CE2
:045274000000000036
:1052780070500B0048E6032000000000000000000A
:105288000000000000000000000000000000000016
:105298000000000000000000000000000000000006
:1052A80000000000000000000000000000000000F6
:1052B80000000000000000000000000000000000E6
:1052C80000000000000000000000000000000000D6
:0C52D8000000000000000000ECE70320D4
:1052E400FFFFFFFF00000102030405060708090A87
:1052F4000B0C0D0E0F101112131415161718191A82
:085304001B1C1D1E1F202800C8
:04530C007856341289
:04000003B000401CED
:00000001FF
